{
  "contractName": "ERC721",
  "abi": [
    {
      "inputs": [],
      "stateMutability": "nonpayable",
      "type": "constructor"
    },
    {
      "anonymous": false,
      "inputs": [
        {
          "indexed": true,
          "internalType": "address",
          "name": "_owner",
          "type": "address"
        },
        {
          "indexed": true,
          "internalType": "address",
          "name": "_approved",
          "type": "address"
        },
        {
          "indexed": true,
          "internalType": "uint256",
          "name": "_tokenId",
          "type": "uint256"
        }
      ],
      "name": "Approval",
      "type": "event"
    },
    {
      "anonymous": false,
      "inputs": [
        {
          "indexed": true,
          "internalType": "address",
          "name": "_from",
          "type": "address"
        },
        {
          "indexed": true,
          "internalType": "address",
          "name": "_to",
          "type": "address"
        },
        {
          "indexed": true,
          "internalType": "uint256",
          "name": "_tokenId",
          "type": "uint256"
        }
      ],
      "name": "Transfer",
      "type": "event"
    },
    {
      "inputs": [
        {
          "internalType": "bytes4",
          "name": "interfaceId",
          "type": "bytes4"
        }
      ],
      "name": "_registerInterface",
      "outputs": [],
      "stateMutability": "nonpayable",
      "type": "function"
    },
    {
      "inputs": [
        {
          "internalType": "bytes4",
          "name": "interfaceId",
          "type": "bytes4"
        }
      ],
      "name": "supportsInterface",
      "outputs": [
        {
          "internalType": "bool",
          "name": "",
          "type": "bool"
        }
      ],
      "stateMutability": "view",
      "type": "function"
    },
    {
      "inputs": [
        {
          "internalType": "address",
          "name": "_owner",
          "type": "address"
        }
      ],
      "name": "balanceOf",
      "outputs": [
        {
          "internalType": "uint256",
          "name": "",
          "type": "uint256"
        }
      ],
      "stateMutability": "view",
      "type": "function"
    },
    {
      "inputs": [
        {
          "internalType": "uint256",
          "name": "_tokenId",
          "type": "uint256"
        }
      ],
      "name": "ownerOf",
      "outputs": [
        {
          "internalType": "address",
          "name": "",
          "type": "address"
        }
      ],
      "stateMutability": "view",
      "type": "function"
    },
    {
      "inputs": [
        {
          "internalType": "address",
          "name": "_from",
          "type": "address"
        },
        {
          "internalType": "address",
          "name": "_to",
          "type": "address"
        },
        {
          "internalType": "uint256",
          "name": "_tokenId",
          "type": "uint256"
        }
      ],
      "name": "transferFrom",
      "outputs": [],
      "stateMutability": "nonpayable",
      "type": "function"
    },
    {
      "inputs": [
        {
          "internalType": "address",
          "name": "_to",
          "type": "address"
        },
        {
          "internalType": "uint256",
          "name": "tokenId",
          "type": "uint256"
        }
      ],
      "name": "approve",
      "outputs": [],
      "stateMutability": "nonpayable",
      "type": "function"
    }
  ],
  "bytecode": "0x60806040523480156200001157600080fd5b50620000437f01ffc9a7a5cef8baa21ed3c5c0d7e23accb804b619e9333b597f47a0d84076e2620000be60201b60201c565b620000b87f22c82707ba960a14c7592ffb6b8cfaa073fed0048a84cc7fa41f6b5bd8e7f2e47f3a6eb71757dfc6e784c1459d26270140c2c147d95ca985c80026fc5301c3eca17f8a7e378434598edc36d108689a030cbc9d7d465de4f74c71bae1028eed6a881b1818620000be60201b60201c565b62000219565b63ffffffff60e01b817bffffffffffffffffffffffffffffffffffffffffffffffffffffffff191614156200012a576040517f08c379a00000000000000000000000000000000000000000000000000000000081526004016200012190620001f7565b60405180910390fd5b6001600080837bffffffffffffffffffffffffffffffffffffffffffffffffffffffff19167bffffffffffffffffffffffffffffffffffffffffffffffffffffffff1916815260200190815260200160002060006101000a81548160ff02191690831515021790555050565b600082825260208201905092915050565b7f4552433136353a20496e76616c696420496e7465726661636500000000000000600082015250565b6000620001df60198362000196565b9150620001ec82620001a7565b602082019050919050565b600060208201905081810360008301526200021281620001d0565b9050919050565b6110d080620002296000396000f3fe608060405234801561001057600080fd5b50600436106100625760003560e01c806301ffc9a714610067578063068417d914610097578063095ea7b3146100b357806323b872dd146100cf5780636352211e146100eb57806370a082311461011b575b600080fd5b610081600480360381019061007c9190610954565b61014b565b60405161008e919061099c565b60405180910390f35b6100b160048036038101906100ac9190610954565b6101b2565b005b6100cd60048036038101906100c89190610a4b565b610287565b005b6100e960048036038101906100e49190610a8b565b610423565b005b61010560048036038101906101009190610ade565b610446565b6040516101129190610b1a565b60405180910390f35b61013560048036038101906101309190610b35565b6104f8565b6040516101429190610b71565b60405180910390f35b6000806000837bffffffffffffffffffffffffffffffffffffffffffffffffffffffff19167bffffffffffffffffffffffffffffffffffffffffffffffffffffffff1916815260200190815260200160002060009054906101000a900460ff169050919050565b63ffffffff60e01b817bffffffffffffffffffffffffffffffffffffffffffffffffffffffff1916141561021b576040517f08c379a000000000000000000000000000000000000000000000000000000000815260040161021290610be9565b60405180910390fd5b6001600080837bffffffffffffffffffffffffffffffffffffffffffffffffffffffff19167bffffffffffffffffffffffffffffffffffffffffffffffffffffffff1916815260200190815260200160002060006101000a81548160ff02191690831515021790555050565b600061029282610446565b90508073ffffffffffffffffffffffffffffffffffffffff168373ffffffffffffffffffffffffffffffffffffffff161415610303576040517f08c379a00000000000000000000000000000000000000000000000000000000081526004016102fa90610c7b565b60405180910390fd5b8073ffffffffffffffffffffffffffffffffffffffff163373ffffffffffffffffffffffffffffffffffffffff1614610371576040517f08c379a000000000000000000000000000000000000000000000000000000000815260040161036890610d0d565b60405180910390fd5b826003600084815260200190815260200160002060006101000a81548173ffffffffffffffffffffffffffffffffffffffff021916908373ffffffffffffffffffffffffffffffffffffffff160217905550818373ffffffffffffffffffffffffffffffffffffffff168273ffffffffffffffffffffffffffffffffffffffff167f8c5be1e5ebec7d5bd14f71427d1e84f3dd0314c0f7b2291e5b200ac8c7c3b92560405160405180910390a4505050565b61042d33826105b0565b61043657600080fd5b61044183838361063f565b505050565b6000806001600084815260200190815260200160002060009054906101000a900473ffffffffffffffffffffffffffffffffffffffff169050600073ffffffffffffffffffffffffffffffffffffffff168173ffffffffffffffffffffffffffffffffffffffff1614156104ef576040517f08c379a00000000000000000000000000000000000000000000000000000000081526004016104e690610d9f565b60405180910390fd5b80915050919050565b60008073ffffffffffffffffffffffffffffffffffffffff168273ffffffffffffffffffffffffffffffffffffffff161415610569576040517f08c379a000000000000000000000000000000000000000000000000000000000815260040161056090610e31565b60405180910390fd5b600260008373ffffffffffffffffffffffffffffffffffffffff1673ffffffffffffffffffffffffffffffffffffffff168152602001908152602001600020549050919050565b60006105bb82610885565b6105fa576040517f08c379a00000000000000000000000000000000000000000000000000000000081526004016105f190610e9d565b60405180910390fd5b600061060583610446565b90508073ffffffffffffffffffffffffffffffffffffffff168473ffffffffffffffffffffffffffffffffffffffff161491505092915050565b600073ffffffffffffffffffffffffffffffffffffffff168273ffffffffffffffffffffffffffffffffffffffff1614156106af576040517f08c379a00000000000000000000000000000000000000000000000000000000081526004016106a690610f2f565b60405180910390fd5b8273ffffffffffffffffffffffffffffffffffffffff166106cf82610446565b73ffffffffffffffffffffffffffffffffffffffff1614610725576040517f08c379a000000000000000000000000000000000000000000000000000000000815260040161071c90610fc1565b60405180910390fd5b6001600260008573ffffffffffffffffffffffffffffffffffffffff1673ffffffffffffffffffffffffffffffffffffffff16815260200190815260200160002060008282546107759190611010565b925050819055506001600260008473ffffffffffffffffffffffffffffffffffffffff1673ffffffffffffffffffffffffffffffffffffffff16815260200190815260200160002060008282546107cc9190611044565b92505081905550816001600083815260200190815260200160002060006101000a81548173ffffffffffffffffffffffffffffffffffffffff021916908373ffffffffffffffffffffffffffffffffffffffff160217905550808273ffffffffffffffffffffffffffffffffffffffff168473ffffffffffffffffffffffffffffffffffffffff167fddf252ad1be2c89b69c2b068fc378daa952ba7f163c4a11628f55a4df523b3ef60405160405180910390a4505050565b6000806001600084815260200190815260200160002060009054906101000a900473ffffffffffffffffffffffffffffffffffffffff169050600073ffffffffffffffffffffffffffffffffffffffff168173ffffffffffffffffffffffffffffffffffffffff161415915050919050565b600080fd5b60007fffffffff0000000000000000000000000000000000000000000000000000000082169050919050565b610931816108fc565b811461093c57600080fd5b50565b60008135905061094e81610928565b92915050565b60006020828403121561096a576109696108f7565b5b60006109788482850161093f565b91505092915050565b60008115159050919050565b61099681610981565b82525050565b60006020820190506109b1600083018461098d565b92915050565b600073ffffffffffffffffffffffffffffffffffffffff82169050919050565b60006109e2826109b7565b9050919050565b6109f2816109d7565b81146109fd57600080fd5b50565b600081359050610a0f816109e9565b92915050565b6000819050919050565b610a2881610a15565b8114610a3357600080fd5b50565b600081359050610a4581610a1f565b92915050565b60008060408385031215610a6257610a616108f7565b5b6000610a7085828601610a00565b9250506020610a8185828601610a36565b9150509250929050565b600080600060608486031215610aa457610aa36108f7565b5b6000610ab286828701610a00565b9350506020610ac386828701610a00565b9250506040610ad486828701610a36565b9150509250925092565b600060208284031215610af457610af36108f7565b5b6000610b0284828501610a36565b91505092915050565b610b14816109d7565b82525050565b6000602082019050610b2f6000830184610b0b565b92915050565b600060208284031215610b4b57610b4a6108f7565b5b6000610b5984828501610a00565b91505092915050565b610b6b81610a15565b82525050565b6000602082019050610b866000830184610b62565b92915050565b600082825260208201905092915050565b7f4552433136353a20496e76616c696420496e7465726661636500000000000000600082015250565b6000610bd3601983610b8c565b9150610bde82610b9d565b602082019050919050565b60006020820190508181036000830152610c0281610bc6565b9050919050565b7f4572726f72202d20617070726f76616c20746f2063757272656e74206f776e6560008201527f7200000000000000000000000000000000000000000000000000000000000000602082015250565b6000610c65602183610b8c565b9150610c7082610c09565b604082019050919050565b60006020820190508181036000830152610c9481610c58565b9050919050565b7f43757572656e742063616c6c6572206973206e6f7420746865206f776e65722060008201527f6f662074686520746f6b656e2e00000000000000000000000000000000000000602082015250565b6000610cf7602d83610b8c565b9150610d0282610c9b565b604082019050919050565b60006020820190508181036000830152610d2681610cea565b9050919050565b7f6f776e657220717565727920666f72206e6f6e2d6578697374656e7420746f6b60008201527f656e000000000000000000000000000000000000000000000000000000000000602082015250565b6000610d89602283610b8c565b9150610d9482610d2d565b604082019050919050565b60006020820190508181036000830152610db881610d7c565b9050919050565b7f6f776e657220717565727920666f72206e6f6e2d6578697374656e742061646460008201527f7265737300000000000000000000000000000000000000000000000000000000602082015250565b6000610e1b602483610b8c565b9150610e2682610dbf565b604082019050919050565b60006020820190508181036000830152610e4a81610e0e565b9050919050565b7f746f6b656e20646f6573206e6f74206578697374000000000000000000000000600082015250565b6000610e87601483610b8c565b9150610e9282610e51565b602082019050919050565b60006020820190508181036000830152610eb681610e7a565b9050919050565b7f4572726f72202d20455243373231205472616e7366657220746f20746865207a60008201527f65726f2061646472657373000000000000000000000000000000000000000000602082015250565b6000610f19602b83610b8c565b9150610f2482610ebd565b604082019050919050565b60006020820190508181036000830152610f4881610f0c565b9050919050565b7f547279696e6720746f207472616e73666572206120746f6b656e20746865206160008201527f64647265737320646f6573206e6f74206f776e21000000000000000000000000602082015250565b6000610fab603483610b8c565b9150610fb682610f4f565b604082019050919050565b60006020820190508181036000830152610fda81610f9e565b9050919050565b7f4e487b7100000000000000000000000000000000000000000000000000000000600052601160045260246000fd5b600061101b82610a15565b915061102683610a15565b92508282101561103957611038610fe1565b5b828203905092915050565b600061104f82610a15565b915061105a83610a15565b9250827fffffffffffffffffffffffffffffffffffffffffffffffffffffffffffffffff0382111561108f5761108e610fe1565b5b82820190509291505056fea26469706673582212202f0b6a8ae5ee232e763befa72bba8eae0f7cff8dbb02d01e739178a4e562c41b64736f6c63430008090033",
  "immutableReferences": {},
  "source": "// SPDX-License-Identifier: MIT\r\npragma solidity ^0.8.0;\r\n\r\n// import './interfaces/IERC165.sol';\r\nimport './ERC165.sol';\r\nimport './interfaces/IERC721.sol';\r\n\r\n/*\r\na. nft to point to an address\r\nb. keep track of token ids\r\nc. keep track of token owner addresses to token ids\r\nd. keep track of how many tokens an owner address has\r\ne. create an event that emits a transfer log - contract address, where it is being minted to and the id\r\n*/\r\n\r\ncontract ERC721 is ERC165, IERC721 {\r\n    \r\n    // event Transfer(\r\n    //     address indexed from, \r\n    //     address indexed to, \r\n    //     uint256 indexed tokenId\r\n    // );\r\n\r\n    // event Approval(\r\n    //     address indexed owner,\r\n    //     address indexed approved,\r\n    //     uint256 indexed tokenId\r\n    // );\r\n\r\n    mapping(uint256 => address) private _tokenOwner;\r\n    mapping(address => uint256) private _ownedTokensCount;\r\n\r\n    mapping(uint256 => address) private _tokenApprovals;\r\n\r\n    constructor() {\r\n        _registerInterface(bytes4(keccak256('balanceOf(bytes4)')^keccak256('ownerOf(bytes4)')^keccak256('transferFrom(bytes4)')));\r\n    }\r\n\r\n    function balanceOf(address _owner) public override view returns(uint256) {\r\n        require(_owner != address(0),'owner query for non-existent address');\r\n        return _ownedTokensCount[_owner];\r\n    }\r\n\r\n    function ownerOf(uint256 _tokenId) public override view returns (address) {\r\n        address owner = _tokenOwner[_tokenId];\r\n        require(owner != address(0),'owner query for non-existent token');\r\n        return owner;\r\n    }\r\n\r\n\r\n    //checks whether or not if the token already exists and is owned by another user\r\n    function _exists(uint256 tokenId) internal view returns(bool) {\r\n        address owner = _tokenOwner[tokenId];\r\n        return owner != address(0);\r\n    }\r\n\r\n    function _mint(address to, uint tokenId) internal virtual {\r\n        require(to != address(0), 'ERC721: minting to the zero address');\r\n        require(!_exists(tokenId), 'Token already minted and owned by different user');\r\n        // minting the token\r\n        _tokenOwner[tokenId] = to;\r\n        _ownedTokensCount[to] += 1;\r\n\r\n        emit Transfer(address(0), to, tokenId);\r\n    }\r\n\r\n    function _transferFrom(address _from, address _to, uint256 _tokenId) internal {\r\n        require(_to != address(0), 'Error - ERC721 Transfer to the zero address');\r\n        require(ownerOf(_tokenId) == _from, 'Trying to transfer a token the address does not own!');\r\n\r\n        _ownedTokensCount[_from] -= 1;\r\n        _ownedTokensCount[_to] += 1;\r\n\r\n        _tokenOwner[_tokenId] = _to;\r\n\r\n        emit Transfer(_from, _to, _tokenId);\r\n    }\r\n\r\n    function transferFrom(address _from, address _to, uint256 _tokenId) override public {\r\n        require(isApprovedOrOwner(msg.sender, _tokenId));\r\n        _transferFrom(_from, _to, _tokenId);\r\n\r\n    }\r\n\r\n    // //1. Require that the person approving is the owner\r\n    // //2. We are approving an address to a token (tokenId)\r\n    // 3. require that we can't approve sending tokens of the owner \r\n    // 4. update the map of the approval addresses\r\n\r\n    function approve(address _to, uint256 tokenId) public {\r\n        address owner = ownerOf(tokenId);\r\n        require(_to != owner,\"Error - approval to current owner\");\r\n        require(msg.sender == owner, \"Cuurent caller is not the owner of the token.\");\r\n        _tokenApprovals[tokenId] = _to;\r\n        emit Approval(owner, _to, tokenId);\r\n    }\r\n\r\n    function isApprovedOrOwner(address spender, uint256 tokenId) internal view returns(bool) {\r\n        require(_exists(tokenId), \"token does not exist\");\r\n        address owner = ownerOf(tokenId);\r\n        return (spender == owner );\r\n    }\r\n}",
  "sourcePath": "D:\\blockchain\\nft-marketplace-dev\\nft-marketplace\\src\\contracts\\ERC721.sol",
  "compiler": {
    "name": "solc",
    "version": "0.8.9+commit.e5eed63a.Emscripten.clang"
  },
  "schemaVersion": "3.3.4",
  "updatedAt": "2021-11-02T10:24:09.951Z",
  "devdoc": {
    "kind": "dev",
    "methods": {},
    "version": 1
  },
  "userdoc": {
    "kind": "user",
    "methods": {},
    "version": 1
  }
}