{
  "contractName": "ERC721Enumerable",
  "abi": [
    {
      "anonymous": false,
      "inputs": [
        {
          "indexed": true,
          "internalType": "address",
          "name": "from",
          "type": "address"
        },
        {
          "indexed": true,
          "internalType": "address",
          "name": "to",
          "type": "address"
        },
        {
          "indexed": true,
          "internalType": "uint256",
          "name": "tokenId",
          "type": "uint256"
        }
      ],
      "name": "Transfer",
      "type": "event"
    },
    {
      "inputs": [
        {
          "internalType": "address",
          "name": "_owner",
          "type": "address"
        }
      ],
      "name": "balanceOf",
      "outputs": [
        {
          "internalType": "uint256",
          "name": "",
          "type": "uint256"
        }
      ],
      "stateMutability": "view",
      "type": "function"
    },
    {
      "inputs": [
        {
          "internalType": "uint256",
          "name": "_tokenId",
          "type": "uint256"
        }
      ],
      "name": "ownerOf",
      "outputs": [
        {
          "internalType": "address",
          "name": "",
          "type": "address"
        }
      ],
      "stateMutability": "view",
      "type": "function"
    },
    {
      "inputs": [],
      "name": "totalSupply",
      "outputs": [
        {
          "internalType": "uint256",
          "name": "",
          "type": "uint256"
        }
      ],
      "stateMutability": "view",
      "type": "function"
    },
    {
      "inputs": [],
      "name": "testing",
      "outputs": [
        {
          "internalType": "uint256",
          "name": "",
          "type": "uint256"
        }
      ],
      "stateMutability": "view",
      "type": "function"
    }
  ],
  "bytecode": "0x6080604052606460035534801561001557600080fd5b5061051f806100256000396000f3fe608060405234801561001057600080fd5b506004361061004c5760003560e01c806318160ddd146100515780636352211e1461006f57806370a082311461009f5780638d03b102146100cf575b600080fd5b6100596100ed565b6040516100669190610286565b60405180910390f35b610089600480360381019061008491906102d2565b6100fa565b6040516100969190610340565b60405180910390f35b6100b960048036038101906100b49190610387565b6101ab565b6040516100c69190610286565b60405180910390f35b6100d7610263565b6040516100e49190610286565b60405180910390f35b6000600280549050905090565b60008060008084815260200190815260200160002060009054906101000a900473ffffffffffffffffffffffffffffffffffffffff169050600073ffffffffffffffffffffffffffffffffffffffff168173ffffffffffffffffffffffffffffffffffffffff1614156101a2576040517f08c379a000000000000000000000000000000000000000000000000000000000815260040161019990610437565b60405180910390fd5b80915050919050565b60008073ffffffffffffffffffffffffffffffffffffffff168273ffffffffffffffffffffffffffffffffffffffff16141561021c576040517f08c379a0000000000000000000000000000000000000000000000000000000008152600401610213906104c9565b60405180910390fd5b600160008373ffffffffffffffffffffffffffffffffffffffff1673ffffffffffffffffffffffffffffffffffffffff168152602001908152602001600020549050919050565b6000600354905090565b6000819050919050565b6102808161026d565b82525050565b600060208201905061029b6000830184610277565b92915050565b600080fd5b6102af8161026d565b81146102ba57600080fd5b50565b6000813590506102cc816102a6565b92915050565b6000602082840312156102e8576102e76102a1565b5b60006102f6848285016102bd565b91505092915050565b600073ffffffffffffffffffffffffffffffffffffffff82169050919050565b600061032a826102ff565b9050919050565b61033a8161031f565b82525050565b60006020820190506103556000830184610331565b92915050565b6103648161031f565b811461036f57600080fd5b50565b6000813590506103818161035b565b92915050565b60006020828403121561039d5761039c6102a1565b5b60006103ab84828501610372565b91505092915050565b600082825260208201905092915050565b7f6f776e657220717565727920666f72206e6f6e2d6578697374656e7420746f6b60008201527f656e000000000000000000000000000000000000000000000000000000000000602082015250565b60006104216022836103b4565b915061042c826103c5565b604082019050919050565b6000602082019050818103600083015261045081610414565b9050919050565b7f6f776e657220717565727920666f72206e6f6e2d6578697374656e742061646460008201527f7265737300000000000000000000000000000000000000000000000000000000602082015250565b60006104b36024836103b4565b91506104be82610457565b604082019050919050565b600060208201905081810360008301526104e2816104a6565b905091905056fea2646970667358221220731aff50a2049153cc93f3b30cc4ce9be73a9c851213311bd980c0be8409a89464736f6c63430008090033",
  "immutableReferences": {},
  "source": "// SPDX-License-Identifier: MIT\r\npragma solidity ^0.8.0;\r\n\r\nimport './ERC721.sol';\r\n\r\ncontract ERC721Enumerable is ERC721 {\r\n\r\n    uint256[] private _allTokens;\r\n\r\n    uint256 private testingNo = 100;\r\n\r\n    // mapping from tokenId to position in _allTokens array  \r\n    mapping( uint256 => uint256 ) private _allTokensIndex;\r\n\r\n    // mapping of owner to list of all owner token ids\r\n    mapping( address => uint256[]) private _ownedTokens;\r\n\r\n    // mapping from token ID to index of the owner tokens list\r\n    mapping( uint256 => uint256 ) private _ownedTokensIndex;\r\n\r\n\r\n    function _mint(address to, uint256 tokenId) internal override(ERC721) {\r\n        super._mint(to, tokenId); \r\n\r\n        // 1. add tokens to the owner\r\n        // 2. add tokens to the totalSupply - to allTokens\r\n        _addTokensToTotalSupply(tokenId);\r\n\r\n    }\r\n\r\n    function _addTokensToTotalSupply(uint256 tokenId) private {\r\n        _allTokens.push(tokenId);\r\n    }\r\n\r\n    function totalSupply() public view returns(uint256) {\r\n        return _allTokens.length;\r\n    }\r\n\r\n    function testing() public view returns(uint256) {\r\n        return testingNo;\r\n    }\r\n\r\n}",
  "sourcePath": "D:\\blockchain\\nft-marketplace-dev\\nft-marketplace\\src\\contracts\\ERC721Enumerable.sol",
  "compiler": {
    "name": "solc",
    "version": "0.8.9+commit.e5eed63a.Emscripten.clang"
  },
  "schemaVersion": "3.3.4",
  "updatedAt": "2021-10-13T22:03:10.863Z",
  "devdoc": {
    "kind": "dev",
    "methods": {},
    "version": 1
  },
  "userdoc": {
    "kind": "user",
    "methods": {},
    "version": 1
  }
}