{
  "contractName": "KryptoBird",
  "abi": [
    {
      "inputs": [],
      "stateMutability": "nonpayable",
      "type": "constructor"
    },
    {
      "anonymous": false,
      "inputs": [
        {
          "indexed": true,
          "internalType": "address",
          "name": "from",
          "type": "address"
        },
        {
          "indexed": true,
          "internalType": "address",
          "name": "to",
          "type": "address"
        },
        {
          "indexed": true,
          "internalType": "uint256",
          "name": "tokenId",
          "type": "uint256"
        }
      ],
      "name": "Transfer",
      "type": "event"
    },
    {
      "inputs": [
        {
          "internalType": "address",
          "name": "_owner",
          "type": "address"
        }
      ],
      "name": "balanceOf",
      "outputs": [
        {
          "internalType": "uint256",
          "name": "",
          "type": "uint256"
        }
      ],
      "stateMutability": "view",
      "type": "function",
      "constant": true
    },
    {
      "inputs": [
        {
          "internalType": "uint256",
          "name": "",
          "type": "uint256"
        }
      ],
      "name": "kryptoBirdz",
      "outputs": [
        {
          "internalType": "string",
          "name": "",
          "type": "string"
        }
      ],
      "stateMutability": "view",
      "type": "function",
      "constant": true
    },
    {
      "inputs": [],
      "name": "name",
      "outputs": [
        {
          "internalType": "string",
          "name": "",
          "type": "string"
        }
      ],
      "stateMutability": "view",
      "type": "function",
      "constant": true
    },
    {
      "inputs": [
        {
          "internalType": "uint256",
          "name": "_tokenId",
          "type": "uint256"
        }
      ],
      "name": "ownerOf",
      "outputs": [
        {
          "internalType": "address",
          "name": "",
          "type": "address"
        }
      ],
      "stateMutability": "view",
      "type": "function",
      "constant": true
    },
    {
      "inputs": [],
      "name": "symbol",
      "outputs": [
        {
          "internalType": "string",
          "name": "",
          "type": "string"
        }
      ],
      "stateMutability": "view",
      "type": "function",
      "constant": true
    },
    {
      "inputs": [],
      "name": "testing",
      "outputs": [
        {
          "internalType": "uint256",
          "name": "",
          "type": "uint256"
        }
      ],
      "stateMutability": "view",
      "type": "function",
      "constant": true
    },
    {
      "inputs": [],
      "name": "totalSupply",
      "outputs": [
        {
          "internalType": "uint256",
          "name": "",
          "type": "uint256"
        }
      ],
      "stateMutability": "view",
      "type": "function",
      "constant": true
    },
    {
      "inputs": [
        {
          "internalType": "string",
          "name": "_kryptoBird",
          "type": "string"
        }
      ],
      "name": "mint",
      "outputs": [],
      "stateMutability": "nonpayable",
      "type": "function"
    }
  ],
  "bytecode": "0x608060405260646005553480156200001657600080fd5b506040518060400160405280600a81526020017f6b727970746f42697264000000000000000000000000000000000000000000008152506040518060400160405280600681526020017f4b424952445a0000000000000000000000000000000000000000000000000000815250818181600090805190602001906200009d929190620000c1565b508060019080519060200190620000b6929190620000c1565b5050505050620001d6565b828054620000cf90620001a0565b90600052602060002090601f016020900481019282620000f357600085556200013f565b82601f106200010e57805160ff19168380011785556200013f565b828001600101855582156200013f579182015b828111156200013e57825182559160200191906001019062000121565b5b5090506200014e919062000152565b5090565b5b808211156200016d57600081600090555060010162000153565b5090565b7f4e487b7100000000000000000000000000000000000000000000000000000000600052602260045260246000fd5b60006002820490506001821680620001b957607f821691505b60208210811415620001d057620001cf62000171565b5b50919050565b61110580620001e66000396000f3fe608060405234801561001057600080fd5b50600436106100885760003560e01c80638d03b1021161005b5780638d03b1021461012957806393ab6e561461014757806395d89b4114610177578063d85d3d271461019557610088565b806306fdde031461008d57806318160ddd146100ab5780636352211e146100c957806370a08231146100f9575b600080fd5b6100956101b1565b6040516100a291906109b8565b60405180910390f35b6100b3610243565b6040516100c091906109f3565b60405180910390f35b6100e360048036038101906100de9190610a4e565b610250565b6040516100f09190610abc565b60405180910390f35b610113600480360381019061010e9190610b03565b610302565b60405161012091906109f3565b60405180910390f35b6101316103ba565b60405161013e91906109f3565b60405180910390f35b610161600480360381019061015c9190610a4e565b6103c4565b60405161016e91906109b8565b60405180910390f35b61017f610470565b60405161018c91906109b8565b60405180910390f35b6101af60048036038101906101aa9190610c65565b610502565b005b6060600080546101c090610cdd565b80601f01602080910402602001604051908101604052809291908181526020018280546101ec90610cdd565b80156102395780601f1061020e57610100808354040283529160200191610239565b820191906000526020600020905b81548152906001019060200180831161021c57829003601f168201915b5050505050905090565b6000600480549050905090565b6000806002600084815260200190815260200160002060009054906101000a900473ffffffffffffffffffffffffffffffffffffffff169050600073ffffffffffffffffffffffffffffffffffffffff168173ffffffffffffffffffffffffffffffffffffffff1614156102f9576040517f08c379a00000000000000000000000000000000000000000000000000000000081526004016102f090610d81565b60405180910390fd5b80915050919050565b60008073ffffffffffffffffffffffffffffffffffffffff168273ffffffffffffffffffffffffffffffffffffffff161415610373576040517f08c379a000000000000000000000000000000000000000000000000000000000815260040161036a90610e13565b60405180910390fd5b600360008373ffffffffffffffffffffffffffffffffffffffff1673ffffffffffffffffffffffffffffffffffffffff168152602001908152602001600020549050919050565b6000600554905090565b600981815481106103d457600080fd5b9060005260206000200160009150905080546103ef90610cdd565b80601f016020809104026020016040519081016040528092919081815260200182805461041b90610cdd565b80156104685780601f1061043d57610100808354040283529160200191610468565b820191906000526020600020905b81548152906001019060200180831161044b57829003601f168201915b505050505081565b60606001805461047f90610cdd565b80601f01602080910402602001604051908101604052809291908181526020018280546104ab90610cdd565b80156104f85780601f106104cd576101008083540402835291602001916104f8565b820191906000526020600020905b8154815290600101906020018083116104db57829003601f168201915b5050505050905090565b600a816040516105129190610e6f565b908152602001604051809103902060009054906101000a900460ff161561056e576040517f08c379a000000000000000000000000000000000000000000000000000000000815260040161056590610ed2565b60405180910390fd5b6009819080600181540180825580915050600190039060005260206000200160009091909190915090805190602001906105a992919061087c565b50600060016009805490506105be9190610f21565b90506105ca3382610605565b6001600a836040516105dc9190610e6f565b908152602001604051809103902060006101000a81548160ff0219169083151502179055505050565b61060f828261061c565b610618816107de565b5050565b600073ffffffffffffffffffffffffffffffffffffffff168273ffffffffffffffffffffffffffffffffffffffff16141561068c576040517f08c379a000000000000000000000000000000000000000000000000000000000815260040161068390610fc7565b60405180910390fd5b6106958161080a565b156106d5576040517f08c379a00000000000000000000000000000000000000000000000000000000081526004016106cc90611059565b60405180910390fd5b816002600083815260200190815260200160002060006101000a81548173ffffffffffffffffffffffffffffffffffffffff021916908373ffffffffffffffffffffffffffffffffffffffff1602179055506001600360008473ffffffffffffffffffffffffffffffffffffffff1673ffffffffffffffffffffffffffffffffffffffff16815260200190815260200160002060008282546107779190611079565b92505081905550808273ffffffffffffffffffffffffffffffffffffffff16600073ffffffffffffffffffffffffffffffffffffffff167fddf252ad1be2c89b69c2b068fc378daa952ba7f163c4a11628f55a4df523b3ef60405160405180910390a45050565b600481908060018154018082558091505060019003906000526020600020016000909190919091505550565b6000806002600084815260200190815260200160002060009054906101000a900473ffffffffffffffffffffffffffffffffffffffff169050600073ffffffffffffffffffffffffffffffffffffffff168173ffffffffffffffffffffffffffffffffffffffff161415915050919050565b82805461088890610cdd565b90600052602060002090601f0160209004810192826108aa57600085556108f1565b82601f106108c357805160ff19168380011785556108f1565b828001600101855582156108f1579182015b828111156108f05782518255916020019190600101906108d5565b5b5090506108fe9190610902565b5090565b5b8082111561091b576000816000905550600101610903565b5090565b600081519050919050565b600082825260208201905092915050565b60005b8381101561095957808201518184015260208101905061093e565b83811115610968576000848401525b50505050565b6000601f19601f8301169050919050565b600061098a8261091f565b610994818561092a565b93506109a481856020860161093b565b6109ad8161096e565b840191505092915050565b600060208201905081810360008301526109d2818461097f565b905092915050565b6000819050919050565b6109ed816109da565b82525050565b6000602082019050610a0860008301846109e4565b92915050565b6000604051905090565b600080fd5b600080fd5b610a2b816109da565b8114610a3657600080fd5b50565b600081359050610a4881610a22565b92915050565b600060208284031215610a6457610a63610a18565b5b6000610a7284828501610a39565b91505092915050565b600073ffffffffffffffffffffffffffffffffffffffff82169050919050565b6000610aa682610a7b565b9050919050565b610ab681610a9b565b82525050565b6000602082019050610ad16000830184610aad565b92915050565b610ae081610a9b565b8114610aeb57600080fd5b50565b600081359050610afd81610ad7565b92915050565b600060208284031215610b1957610b18610a18565b5b6000610b2784828501610aee565b91505092915050565b600080fd5b600080fd5b7f4e487b7100000000000000000000000000000000000000000000000000000000600052604160045260246000fd5b610b728261096e565b810181811067ffffffffffffffff82111715610b9157610b90610b3a565b5b80604052505050565b6000610ba4610a0e565b9050610bb08282610b69565b919050565b600067ffffffffffffffff821115610bd057610bcf610b3a565b5b610bd98261096e565b9050602081019050919050565b82818337600083830152505050565b6000610c08610c0384610bb5565b610b9a565b905082815260208101848484011115610c2457610c23610b35565b5b610c2f848285610be6565b509392505050565b600082601f830112610c4c57610c4b610b30565b5b8135610c5c848260208601610bf5565b91505092915050565b600060208284031215610c7b57610c7a610a18565b5b600082013567ffffffffffffffff811115610c9957610c98610a1d565b5b610ca584828501610c37565b91505092915050565b7f4e487b7100000000000000000000000000000000000000000000000000000000600052602260045260246000fd5b60006002820490506001821680610cf557607f821691505b60208210811415610d0957610d08610cae565b5b50919050565b7f6f776e657220717565727920666f72206e6f6e2d6578697374656e7420746f6b60008201527f656e000000000000000000000000000000000000000000000000000000000000602082015250565b6000610d6b60228361092a565b9150610d7682610d0f565b604082019050919050565b60006020820190508181036000830152610d9a81610d5e565b9050919050565b7f6f776e657220717565727920666f72206e6f6e2d6578697374656e742061646460008201527f7265737300000000000000000000000000000000000000000000000000000000602082015250565b6000610dfd60248361092a565b9150610e0882610da1565b604082019050919050565b60006020820190508181036000830152610e2c81610df0565b9050919050565b600081905092915050565b6000610e498261091f565b610e538185610e33565b9350610e6381856020860161093b565b80840191505092915050565b6000610e7b8284610e3e565b915081905092915050565b7f4572726f723a204b727970746f4269726420616c726561647920657869737473600082015250565b6000610ebc60208361092a565b9150610ec782610e86565b602082019050919050565b60006020820190508181036000830152610eeb81610eaf565b9050919050565b7f4e487b7100000000000000000000000000000000000000000000000000000000600052601160045260246000fd5b6000610f2c826109da565b9150610f37836109da565b925082821015610f4a57610f49610ef2565b5b828203905092915050565b7f4552433732313a206d696e74696e6720746f20746865207a65726f206164647260008201527f6573730000000000000000000000000000000000000000000000000000000000602082015250565b6000610fb160238361092a565b9150610fbc82610f55565b604082019050919050565b60006020820190508181036000830152610fe081610fa4565b9050919050565b7f546f6b656e20616c7265616479206d696e74656420616e64206f776e6564206260008201527f7920646966666572656e74207573657200000000000000000000000000000000602082015250565b600061104360308361092a565b915061104e82610fe7565b604082019050919050565b6000602082019050818103600083015261107281611036565b9050919050565b6000611084826109da565b915061108f836109da565b9250827fffffffffffffffffffffffffffffffffffffffffffffffffffffffffffffffff038211156110c4576110c3610ef2565b5b82820190509291505056fea2646970667358221220bf413c59dc66f82e624158ee8ed27de7719b8c4ba516d3a11b84d7a59ae96ac164736f6c63430008090033",
  "immutableReferences": {},
  "source": "// SPDX-License-Identifier: MIT\r\npragma solidity ^0.8.0;\r\n\r\nimport './ERC721Connector.sol';\r\n\r\ncontract KryptoBird is ERC721Connector {\r\n\r\n    //array to store the NFTs\r\n    string [] public kryptoBirdz;\r\n\r\n    mapping(string => bool) _kryptoBirdzExists;\r\n\r\n    function mint(string memory _kryptoBird) public {\r\n\r\n        require(!_kryptoBirdzExists[_kryptoBird],'Error: KryptoBird already exists'); \r\n        \r\n        // .push is depricated\r\n        // uint _id =  KryptoBirdz.push(_kryptoBird);\r\n\r\n        kryptoBirdz.push(_kryptoBird);\r\n        uint _id = kryptoBirdz.length - 1;\r\n\r\n        _mint(msg.sender, _id);\r\n        _kryptoBirdzExists[_kryptoBird] = true;\r\n    }\r\n    \r\n    constructor() ERC721Connector('kryptoBird','KBIRDZ') {\r\n\r\n    }\r\n}\r\n\r\n",
  "sourcePath": "D:/blockchain/nft-marketplace-dev/nft-marketplace/src/contracts/KryptoBirdz.sol",
  "compiler": {
    "name": "solc",
    "version": "0.8.9+commit.e5eed63a.Emscripten.clang"
  },
  "schemaVersion": "3.3.4",
  "updatedAt": "2021-10-13T22:03:14.593Z",
  "networkType": "ethereum",
  "devdoc": {
    "kind": "dev",
    "methods": {},
    "version": 1
  },
  "userdoc": {
    "kind": "user",
    "methods": {},
    "version": 1
  }
}