{
  "contractName": "KryptoBird",
  "abi": [
    {
      "inputs": [],
      "stateMutability": "nonpayable",
      "type": "constructor"
    },
    {
      "anonymous": false,
      "inputs": [
        {
          "indexed": true,
          "internalType": "address",
          "name": "_owner",
          "type": "address"
        },
        {
          "indexed": true,
          "internalType": "address",
          "name": "_approved",
          "type": "address"
        },
        {
          "indexed": true,
          "internalType": "uint256",
          "name": "_tokenId",
          "type": "uint256"
        }
      ],
      "name": "Approval",
      "type": "event"
    },
    {
      "anonymous": false,
      "inputs": [
        {
          "indexed": true,
          "internalType": "address",
          "name": "_from",
          "type": "address"
        },
        {
          "indexed": true,
          "internalType": "address",
          "name": "_to",
          "type": "address"
        },
        {
          "indexed": true,
          "internalType": "uint256",
          "name": "_tokenId",
          "type": "uint256"
        }
      ],
      "name": "Transfer",
      "type": "event"
    },
    {
      "inputs": [
        {
          "internalType": "bytes4",
          "name": "interfaceId",
          "type": "bytes4"
        }
      ],
      "name": "_registerInterface",
      "outputs": [],
      "stateMutability": "nonpayable",
      "type": "function"
    },
    {
      "inputs": [
        {
          "internalType": "address",
          "name": "_to",
          "type": "address"
        },
        {
          "internalType": "uint256",
          "name": "tokenId",
          "type": "uint256"
        }
      ],
      "name": "approve",
      "outputs": [],
      "stateMutability": "nonpayable",
      "type": "function"
    },
    {
      "inputs": [
        {
          "internalType": "address",
          "name": "_owner",
          "type": "address"
        }
      ],
      "name": "balanceOf",
      "outputs": [
        {
          "internalType": "uint256",
          "name": "",
          "type": "uint256"
        }
      ],
      "stateMutability": "view",
      "type": "function"
    },
    {
      "inputs": [
        {
          "internalType": "uint256",
          "name": "",
          "type": "uint256"
        }
      ],
      "name": "kryptoBirdz",
      "outputs": [
        {
          "internalType": "string",
          "name": "",
          "type": "string"
        }
      ],
      "stateMutability": "view",
      "type": "function"
    },
    {
      "inputs": [],
      "name": "name",
      "outputs": [
        {
          "internalType": "string",
          "name": "",
          "type": "string"
        }
      ],
      "stateMutability": "view",
      "type": "function"
    },
    {
      "inputs": [
        {
          "internalType": "uint256",
          "name": "_tokenId",
          "type": "uint256"
        }
      ],
      "name": "ownerOf",
      "outputs": [
        {
          "internalType": "address",
          "name": "",
          "type": "address"
        }
      ],
      "stateMutability": "view",
      "type": "function"
    },
    {
      "inputs": [
        {
          "internalType": "bytes4",
          "name": "interfaceId",
          "type": "bytes4"
        }
      ],
      "name": "supportsInterface",
      "outputs": [
        {
          "internalType": "bool",
          "name": "",
          "type": "bool"
        }
      ],
      "stateMutability": "view",
      "type": "function"
    },
    {
      "inputs": [],
      "name": "symbol",
      "outputs": [
        {
          "internalType": "string",
          "name": "",
          "type": "string"
        }
      ],
      "stateMutability": "view",
      "type": "function"
    },
    {
      "inputs": [
        {
          "internalType": "uint256",
          "name": "index",
          "type": "uint256"
        }
      ],
      "name": "tokenByIndex",
      "outputs": [
        {
          "internalType": "uint256",
          "name": "",
          "type": "uint256"
        }
      ],
      "stateMutability": "view",
      "type": "function"
    },
    {
      "inputs": [
        {
          "internalType": "address",
          "name": "owner",
          "type": "address"
        },
        {
          "internalType": "uint256",
          "name": "index",
          "type": "uint256"
        }
      ],
      "name": "tokenOfOwnerByIndex",
      "outputs": [
        {
          "internalType": "uint256",
          "name": "",
          "type": "uint256"
        }
      ],
      "stateMutability": "view",
      "type": "function"
    },
    {
      "inputs": [],
      "name": "totalSupply",
      "outputs": [
        {
          "internalType": "uint256",
          "name": "",
          "type": "uint256"
        }
      ],
      "stateMutability": "view",
      "type": "function"
    },
    {
      "inputs": [
        {
          "internalType": "address",
          "name": "_from",
          "type": "address"
        },
        {
          "internalType": "address",
          "name": "_to",
          "type": "address"
        },
        {
          "internalType": "uint256",
          "name": "_tokenId",
          "type": "uint256"
        }
      ],
      "name": "transferFrom",
      "outputs": [],
      "stateMutability": "nonpayable",
      "type": "function"
    },
    {
      "inputs": [
        {
          "internalType": "string",
          "name": "_kryptoBird",
          "type": "string"
        }
      ],
      "name": "mint",
      "outputs": [],
      "stateMutability": "nonpayable",
      "type": "function"
    }
  ],
  "bytecode": "0x60806040523480156200001157600080fd5b506040518060400160405280600a81526020017f4b727970746f42697264000000000000000000000000000000000000000000008152506040518060400160405280600681526020017f4b424952445a00000000000000000000000000000000000000000000000000008152508181620000b17f01ffc9a7a5cef8baa21ed3c5c0d7e23accb804b619e9333b597f47a0d84076e2620001b560201b60201c565b620001047f13b182f4c0e5b2efbac0efe6cf6d756c8b89f4b79c5707a043ed9ea740574ee97f7feaf19471f34a12a7eaf32d5f3090aa2260ea8624dc8a138e74e0bf0f62307618620001b560201b60201c565b81600190805190602001906200011c9291906200028d565b508060029080519060200190620001359291906200028d565b505050620001ad7f22c82707ba960a14c7592ffb6b8cfaa073fed0048a84cc7fa41f6b5bd8e7f2e47f3a6eb71757dfc6e784c1459d26270140c2c147d95ca985c80026fc5301c3eca17f8a7e378434598edc36d108689a030cbc9d7d465de4f74c71bae1028eed6a881b1818620001b560201b60201c565b505062000425565b63ffffffff60e01b817bffffffffffffffffffffffffffffffffffffffffffffffffffffffff1916141562000221576040517f08c379a000000000000000000000000000000000000000000000000000000000815260040162000218906200039e565b60405180910390fd5b6001600080837bffffffffffffffffffffffffffffffffffffffffffffffffffffffff19167bffffffffffffffffffffffffffffffffffffffffffffffffffffffff1916815260200190815260200160002060006101000a81548160ff02191690831515021790555050565b8280546200029b90620003ef565b90600052602060002090601f016020900481019282620002bf57600085556200030b565b82601f10620002da57805160ff19168380011785556200030b565b828001600101855582156200030b579182015b828111156200030a578251825591602001919060010190620002ed565b5b5090506200031a91906200031e565b5090565b5b80821115620003395760008160009055506001016200031f565b5090565b600082825260208201905092915050565b7f4552433136353a20496e76616c696420496e7465726661636500000000000000600082015250565b6000620003866019836200033d565b915062000393826200034e565b602082019050919050565b60006020820190508181036000830152620003b98162000377565b9050919050565b7f4e487b7100000000000000000000000000000000000000000000000000000000600052602260045260246000fd5b600060028204905060018216806200040857607f821691505b602082108114156200041f576200041e620003c0565b5b50919050565b611f5980620004356000396000f3fe608060405234801561001057600080fd5b50600436106100cf5760003560e01c80632f745c591161008c57806370a082311161006657806370a082311461022457806393ab6e561461025457806395d89b4114610284578063d85d3d27146102a2576100cf565b80632f745c59146101945780634f6ccce7146101c45780636352211e146101f4576100cf565b806301ffc9a7146100d4578063068417d91461010457806306fdde0314610120578063095ea7b31461013e57806318160ddd1461015a57806323b872dd14610178575b600080fd5b6100ee60048036038101906100e9919061126a565b6102be565b6040516100fb91906112b2565b60405180910390f35b61011e6004803603810190610119919061126a565b610325565b005b6101286103fa565b6040516101359190611366565b60405180910390f35b6101586004803603810190610153919061141c565b61048c565b005b610162610628565b60405161016f919061146b565b60405180910390f35b610192600480360381019061018d9190611486565b610635565b005b6101ae60048036038101906101a9919061141c565b610658565b6040516101bb919061146b565b60405180910390f35b6101de60048036038101906101d991906114d9565b610708565b6040516101eb919061146b565b60405180910390f35b61020e600480360381019061020991906114d9565b610779565b60405161021b9190611515565b60405180910390f35b61023e60048036038101906102399190611530565b61082b565b60405161024b919061146b565b60405180910390f35b61026e600480360381019061026991906114d9565b6108e3565b60405161027b9190611366565b60405180910390f35b61028c61098f565b6040516102999190611366565b60405180910390f35b6102bc60048036038101906102b79190611692565b610a21565b005b6000806000837bffffffffffffffffffffffffffffffffffffffffffffffffffffffff19167bffffffffffffffffffffffffffffffffffffffffffffffffffffffff1916815260200190815260200160002060009054906101000a900460ff169050919050565b63ffffffff60e01b817bffffffffffffffffffffffffffffffffffffffffffffffffffffffff1916141561038e576040517f08c379a000000000000000000000000000000000000000000000000000000000815260040161038590611727565b60405180910390fd5b6001600080837bffffffffffffffffffffffffffffffffffffffffffffffffffffffff19167bffffffffffffffffffffffffffffffffffffffffffffffffffffffff1916815260200190815260200160002060006101000a81548160ff02191690831515021790555050565b60606001805461040990611776565b80601f016020809104026020016040519081016040528092919081815260200182805461043590611776565b80156104825780601f1061045757610100808354040283529160200191610482565b820191906000526020600020905b81548152906001019060200180831161046557829003601f168201915b5050505050905090565b600061049782610779565b90508073ffffffffffffffffffffffffffffffffffffffff168373ffffffffffffffffffffffffffffffffffffffff161415610508576040517f08c379a00000000000000000000000000000000000000000000000000000000081526004016104ff9061181a565b60405180910390fd5b8073ffffffffffffffffffffffffffffffffffffffff163373ffffffffffffffffffffffffffffffffffffffff1614610576576040517f08c379a000000000000000000000000000000000000000000000000000000000815260040161056d906118ac565b60405180910390fd5b826005600084815260200190815260200160002060006101000a81548173ffffffffffffffffffffffffffffffffffffffff021916908373ffffffffffffffffffffffffffffffffffffffff160217905550818373ffffffffffffffffffffffffffffffffffffffff168273ffffffffffffffffffffffffffffffffffffffff167f8c5be1e5ebec7d5bd14f71427d1e84f3dd0314c0f7b2291e5b200ac8c7c3b92560405160405180910390a4505050565b6000600680549050905090565b61063f3382610b24565b61064857600080fd5b610653838383610bb3565b505050565b60006106638361082b565b82106106a4576040517f08c379a000000000000000000000000000000000000000000000000000000000815260040161069b90611918565b60405180910390fd5b600860008473ffffffffffffffffffffffffffffffffffffffff1673ffffffffffffffffffffffffffffffffffffffff16815260200190815260200160002082815481106106f5576106f4611938565b5b9060005260206000200154905092915050565b6000610712610628565b8210610753576040517f08c379a000000000000000000000000000000000000000000000000000000000815260040161074a906119b3565b60405180910390fd5b6006828154811061076757610766611938565b5b90600052602060002001549050919050565b6000806003600084815260200190815260200160002060009054906101000a900473ffffffffffffffffffffffffffffffffffffffff169050600073ffffffffffffffffffffffffffffffffffffffff168173ffffffffffffffffffffffffffffffffffffffff161415610822576040517f08c379a000000000000000000000000000000000000000000000000000000000815260040161081990611a45565b60405180910390fd5b80915050919050565b60008073ffffffffffffffffffffffffffffffffffffffff168273ffffffffffffffffffffffffffffffffffffffff16141561089c576040517f08c379a000000000000000000000000000000000000000000000000000000000815260040161089390611ad7565b60405180910390fd5b600460008373ffffffffffffffffffffffffffffffffffffffff1673ffffffffffffffffffffffffffffffffffffffff168152602001908152602001600020549050919050565b600a81815481106108f357600080fd5b90600052602060002001600091509050805461090e90611776565b80601f016020809104026020016040519081016040528092919081815260200182805461093a90611776565b80156109875780601f1061095c57610100808354040283529160200191610987565b820191906000526020600020905b81548152906001019060200180831161096a57829003601f168201915b505050505081565b60606002805461099e90611776565b80601f01602080910402602001604051908101604052809291908181526020018280546109ca90611776565b8015610a175780601f106109ec57610100808354040283529160200191610a17565b820191906000526020600020905b8154815290600101906020018083116109fa57829003601f168201915b5050505050905090565b600b81604051610a319190611b33565b908152602001604051809103902060009054906101000a900460ff1615610a8d576040517f08c379a0000000000000000000000000000000000000000000000000000000008152600401610a8490611b96565b60405180910390fd5b600a81908060018154018082558091505060019003906000526020600020016000909190919091509080519060200190610ac892919061115b565b5060006001600a80549050610add9190611be5565b9050610ae93382610df9565b6001600b83604051610afb9190611b33565b908152602001604051809103902060006101000a81548160ff0219169083151502179055505050565b6000610b2f82610e1a565b610b6e576040517f08c379a0000000000000000000000000000000000000000000000000000000008152600401610b6590611c65565b60405180910390fd5b6000610b7983610779565b90508073ffffffffffffffffffffffffffffffffffffffff168473ffffffffffffffffffffffffffffffffffffffff161491505092915050565b600073ffffffffffffffffffffffffffffffffffffffff168273ffffffffffffffffffffffffffffffffffffffff161415610c23576040517f08c379a0000000000000000000000000000000000000000000000000000000008152600401610c1a90611cf7565b60405180910390fd5b8273ffffffffffffffffffffffffffffffffffffffff16610c4382610779565b73ffffffffffffffffffffffffffffffffffffffff1614610c99576040517f08c379a0000000000000000000000000000000000000000000000000000000008152600401610c9090611d89565b60405180910390fd5b6001600460008573ffffffffffffffffffffffffffffffffffffffff1673ffffffffffffffffffffffffffffffffffffffff1681526020019081526020016000206000828254610ce99190611be5565b925050819055506001600460008473ffffffffffffffffffffffffffffffffffffffff1673ffffffffffffffffffffffffffffffffffffffff1681526020019081526020016000206000828254610d409190611da9565b92505081905550816003600083815260200190815260200160002060006101000a81548173ffffffffffffffffffffffffffffffffffffffff021916908373ffffffffffffffffffffffffffffffffffffffff160217905550808273ffffffffffffffffffffffffffffffffffffffff168473ffffffffffffffffffffffffffffffffffffffff167fddf252ad1be2c89b69c2b068fc378daa952ba7f163c4a11628f55a4df523b3ef60405160405180910390a4505050565b610e038282610e8c565b610e0c8161104e565b610e168282611097565b5050565b6000806003600084815260200190815260200160002060009054906101000a900473ffffffffffffffffffffffffffffffffffffffff169050600073ffffffffffffffffffffffffffffffffffffffff168173ffffffffffffffffffffffffffffffffffffffff161415915050919050565b600073ffffffffffffffffffffffffffffffffffffffff168273ffffffffffffffffffffffffffffffffffffffff161415610efc576040517f08c379a0000000000000000000000000000000000000000000000000000000008152600401610ef390611e71565b60405180910390fd5b610f0581610e1a565b15610f45576040517f08c379a0000000000000000000000000000000000000000000000000000000008152600401610f3c90611f03565b60405180910390fd5b816003600083815260200190815260200160002060006101000a81548173ffffffffffffffffffffffffffffffffffffffff021916908373ffffffffffffffffffffffffffffffffffffffff1602179055506001600460008473ffffffffffffffffffffffffffffffffffffffff1673ffffffffffffffffffffffffffffffffffffffff1681526020019081526020016000206000828254610fe79190611da9565b92505081905550808273ffffffffffffffffffffffffffffffffffffffff16600073ffffffffffffffffffffffffffffffffffffffff167fddf252ad1be2c89b69c2b068fc378daa952ba7f163c4a11628f55a4df523b3ef60405160405180910390a45050565b6006805490506007600083815260200190815260200160002081905550600681908060018154018082558091505060019003906000526020600020016000909190919091505550565b600860008373ffffffffffffffffffffffffffffffffffffffff1673ffffffffffffffffffffffffffffffffffffffff168152602001908152602001600020805490506009600083815260200190815260200160002081905550600860008373ffffffffffffffffffffffffffffffffffffffff1673ffffffffffffffffffffffffffffffffffffffff1681526020019081526020016000208190806001815401808255809150506001900390600052602060002001600090919091909150555050565b82805461116790611776565b90600052602060002090601f01602090048101928261118957600085556111d0565b82601f106111a257805160ff19168380011785556111d0565b828001600101855582156111d0579182015b828111156111cf5782518255916020019190600101906111b4565b5b5090506111dd91906111e1565b5090565b5b808211156111fa5760008160009055506001016111e2565b5090565b6000604051905090565b600080fd5b600080fd5b60007fffffffff0000000000000000000000000000000000000000000000000000000082169050919050565b61124781611212565b811461125257600080fd5b50565b6000813590506112648161123e565b92915050565b6000602082840312156112805761127f611208565b5b600061128e84828501611255565b91505092915050565b60008115159050919050565b6112ac81611297565b82525050565b60006020820190506112c760008301846112a3565b92915050565b600081519050919050565b600082825260208201905092915050565b60005b838110156113075780820151818401526020810190506112ec565b83811115611316576000848401525b50505050565b6000601f19601f8301169050919050565b6000611338826112cd565b61134281856112d8565b93506113528185602086016112e9565b61135b8161131c565b840191505092915050565b60006020820190508181036000830152611380818461132d565b905092915050565b600073ffffffffffffffffffffffffffffffffffffffff82169050919050565b60006113b382611388565b9050919050565b6113c3816113a8565b81146113ce57600080fd5b50565b6000813590506113e0816113ba565b92915050565b6000819050919050565b6113f9816113e6565b811461140457600080fd5b50565b600081359050611416816113f0565b92915050565b6000806040838503121561143357611432611208565b5b6000611441858286016113d1565b925050602061145285828601611407565b9150509250929050565b611465816113e6565b82525050565b6000602082019050611480600083018461145c565b92915050565b60008060006060848603121561149f5761149e611208565b5b60006114ad868287016113d1565b93505060206114be868287016113d1565b92505060406114cf86828701611407565b9150509250925092565b6000602082840312156114ef576114ee611208565b5b60006114fd84828501611407565b91505092915050565b61150f816113a8565b82525050565b600060208201905061152a6000830184611506565b92915050565b60006020828403121561154657611545611208565b5b6000611554848285016113d1565b91505092915050565b600080fd5b600080fd5b7f4e487b7100000000000000000000000000000000000000000000000000000000600052604160045260246000fd5b61159f8261131c565b810181811067ffffffffffffffff821117156115be576115bd611567565b5b80604052505050565b60006115d16111fe565b90506115dd8282611596565b919050565b600067ffffffffffffffff8211156115fd576115fc611567565b5b6116068261131c565b9050602081019050919050565b82818337600083830152505050565b6000611635611630846115e2565b6115c7565b90508281526020810184848401111561165157611650611562565b5b61165c848285611613565b509392505050565b600082601f8301126116795761167861155d565b5b8135611689848260208601611622565b91505092915050565b6000602082840312156116a8576116a7611208565b5b600082013567ffffffffffffffff8111156116c6576116c561120d565b5b6116d284828501611664565b91505092915050565b7f4552433136353a20496e76616c696420496e7465726661636500000000000000600082015250565b60006117116019836112d8565b915061171c826116db565b602082019050919050565b6000602082019050818103600083015261174081611704565b9050919050565b7f4e487b7100000000000000000000000000000000000000000000000000000000600052602260045260246000fd5b6000600282049050600182168061178e57607f821691505b602082108114156117a2576117a1611747565b5b50919050565b7f4572726f72202d20617070726f76616c20746f2063757272656e74206f776e6560008201527f7200000000000000000000000000000000000000000000000000000000000000602082015250565b60006118046021836112d8565b915061180f826117a8565b604082019050919050565b60006020820190508181036000830152611833816117f7565b9050919050565b7f43757572656e742063616c6c6572206973206e6f7420746865206f776e65722060008201527f6f662074686520746f6b656e2e00000000000000000000000000000000000000602082015250565b6000611896602d836112d8565b91506118a18261183a565b604082019050919050565b600060208201905081810360008301526118c581611889565b9050919050565b7f6f776e657220696e646578206973206f7574206f6620626f756e647321000000600082015250565b6000611902601d836112d8565b915061190d826118cc565b602082019050919050565b60006020820190508181036000830152611931816118f5565b9050919050565b7f4e487b7100000000000000000000000000000000000000000000000000000000600052603260045260246000fd5b7f676c6f62616c20696e646578206973206f7574206f6620626f756e6473210000600082015250565b600061199d601e836112d8565b91506119a882611967565b602082019050919050565b600060208201905081810360008301526119cc81611990565b9050919050565b7f6f776e657220717565727920666f72206e6f6e2d6578697374656e7420746f6b60008201527f656e000000000000000000000000000000000000000000000000000000000000602082015250565b6000611a2f6022836112d8565b9150611a3a826119d3565b604082019050919050565b60006020820190508181036000830152611a5e81611a22565b9050919050565b7f6f776e657220717565727920666f72206e6f6e2d6578697374656e742061646460008201527f7265737300000000000000000000000000000000000000000000000000000000602082015250565b6000611ac16024836112d8565b9150611acc82611a65565b604082019050919050565b60006020820190508181036000830152611af081611ab4565b9050919050565b600081905092915050565b6000611b0d826112cd565b611b178185611af7565b9350611b278185602086016112e9565b80840191505092915050565b6000611b3f8284611b02565b915081905092915050565b7f4572726f723a204b727970746f4269726420616c726561647920657869737473600082015250565b6000611b806020836112d8565b9150611b8b82611b4a565b602082019050919050565b60006020820190508181036000830152611baf81611b73565b9050919050565b7f4e487b7100000000000000000000000000000000000000000000000000000000600052601160045260246000fd5b6000611bf0826113e6565b9150611bfb836113e6565b925082821015611c0e57611c0d611bb6565b5b828203905092915050565b7f746f6b656e20646f6573206e6f74206578697374000000000000000000000000600082015250565b6000611c4f6014836112d8565b9150611c5a82611c19565b602082019050919050565b60006020820190508181036000830152611c7e81611c42565b9050919050565b7f4572726f72202d20455243373231205472616e7366657220746f20746865207a60008201527f65726f2061646472657373000000000000000000000000000000000000000000602082015250565b6000611ce1602b836112d8565b9150611cec82611c85565b604082019050919050565b60006020820190508181036000830152611d1081611cd4565b9050919050565b7f547279696e6720746f207472616e73666572206120746f6b656e20746865206160008201527f64647265737320646f6573206e6f74206f776e21000000000000000000000000602082015250565b6000611d736034836112d8565b9150611d7e82611d17565b604082019050919050565b60006020820190508181036000830152611da281611d66565b9050919050565b6000611db4826113e6565b9150611dbf836113e6565b9250827fffffffffffffffffffffffffffffffffffffffffffffffffffffffffffffffff03821115611df457611df3611bb6565b5b828201905092915050565b7f4552433732313a206d696e74696e6720746f20746865207a65726f206164647260008201527f6573730000000000000000000000000000000000000000000000000000000000602082015250565b6000611e5b6023836112d8565b9150611e6682611dff565b604082019050919050565b60006020820190508181036000830152611e8a81611e4e565b9050919050565b7f546f6b656e20616c7265616479206d696e74656420616e64206f776e6564206260008201527f7920646966666572656e74207573657200000000000000000000000000000000602082015250565b6000611eed6030836112d8565b9150611ef882611e91565b604082019050919050565b60006020820190508181036000830152611f1c81611ee0565b905091905056fea26469706673582212202b553b33424f20783fab0062f02b78c4cb4141cb61481eb167323f9a2ed1645c64736f6c63430008090033",
  "immutableReferences": {},
  "source": "// SPDX-License-Identifier: MIT\r\npragma solidity ^0.8.0;\r\n\r\nimport './ERC721Connector.sol';\r\n\r\ncontract KryptoBird is ERC721Connector {\r\n\r\n    //array to store the NFTs\r\n    string [] public kryptoBirdz;\r\n\r\n    mapping(string => bool) _kryptoBirdzExists;\r\n\r\n    function mint(string memory _kryptoBird) public {\r\n\r\n        require(!_kryptoBirdzExists[_kryptoBird],'Error: KryptoBird already exists'); \r\n        \r\n        // .push is depricated & will not return length value anymore\r\n        // uint _id =  KryptoBirdz.push(_kryptoBird);\r\n\r\n        kryptoBirdz.push(_kryptoBird);\r\n        uint _id = kryptoBirdz.length - 1;\r\n\r\n        _mint(msg.sender, _id);\r\n        _kryptoBirdzExists[_kryptoBird] = true;\r\n    }\r\n    \r\n    constructor() ERC721Connector('KryptoBird','KBIRDZ') {\r\n\r\n    }\r\n}\r\n\r\n",
  "sourcePath": "D:/blockchain/nft-marketplace-dev/nft-marketplace/src/contracts/KryptoBirdz.sol",
  "compiler": {
    "name": "solc",
    "version": "0.8.9+commit.e5eed63a.Emscripten.clang"
  },
  "schemaVersion": "3.3.4",
  "updatedAt": "2021-11-02T10:24:09.997Z",
  "devdoc": {
    "kind": "dev",
    "methods": {},
    "version": 1
  },
  "userdoc": {
    "kind": "user",
    "methods": {},
    "version": 1
  }
}